:020000040800F2
:10000000A012002089480008FB100008FD1000081D
:10001000FF10000801110008031100080000000093
:1000200000000000000000000000000005110008B2
:100030000711000800000000091100080B1100085A
:10004000A5480008A9480008AD480008B1480008C4
:10005000B5480008B9480008533E0008BD480008EC
:10006000C1480008C5480008C9480008CD48000834
:10007000D1480008D5480008D9480008DD480008E4
:10008000E1480008E5480008E9480008ED48000894
:10009000F1480008F5480008F94800082B3E000820
:1000A000FD48000801490008054900080949000801
:1000B0009D3C00080D490008114900081549000839
:1000C000194900081D490008214900082549000870
:1000D000A53E0008613E0008294900082D49000896
:1000E0003149000835490008394900083D490008F0
:1000F0004149000845490008494900084D490008A0
:100100005149000855490008594900085D4900084F
:100110006149000865490008694900086D490008FF
:100120007149000875490008794900087D490008AF
:100130008149000885490008894900088D4900085F
:100140009149000895490008994900089D4900080F
:10015000A1490008A5490008A9490008AD490008BF
:10016000B1490008B5490008B9490008BD4900086F
:10017000C1490008C5490008C9490008CD4900081F
:10018000D1490008D549000880B500F009F800F011
:1001900083F800F0C6F800F011F900F0E9F801BDAD
:1001A00080B50121012000F0F1FD0120DFF81C1ACB
:1001B00008800020DFF8141A488040F21940DFF868
:1001C0000C1A48600020DFF8041A08810020DFF8CC
:1001D000FC198872DFF8F419DFF8F40900F006FE64
:1001E0000121DFF8EC0900F04DFF6020DFF8E41991
:1001F00008800120DFF8DC1948800020DFF8D419DE
:1002000088600020DFF8CC198881DFF8C819DFF892
:10021000C00900F032FE0821DFF8B40900F006FF43
:100220006020DFF8B01908800120DFF8A8194880A5
:100230000020DFF8A01988600020DFF89819888175
:10024000DFF89019DFF8880900F056FE0821DFF882
:10025000800900F0F4FE6020DFF8781908800120A2
:10026000DFF8701948800020DFF8681988600020E6
:10027000DFF860198881DFF85C19DFF8540900F0B5
:1002800081FE0821DFF8480900F0E3FE0121DFF8D4
:10029000400900F0E4FD01BD80B50121012000F01E
:1002A00066FD40F24730DFF8241908800020DFF8AF
:1002B0001C1948800920DFF8141948600020DFF875
:1002C0000C1908810020DFF804198872DFF8FC1887
:1002D0005FF0804000F08AFD012201215FF0804044
:1002E00000F0E1FE01215FF0804000F0E7FE1C20FD
:1002F000DFF8E41808700020DFF8DC1848700120EF
:10030000DFF8D41888700120DFF8CC18C870DFF847
:10031000C80800F000FF01215FF0804000F09FFD61
:1003200001BD80B50121022000F021FD42F2CF0085
:10033000DFF8981808800020DFF8901848804FF602
:10034000FF70DFF8881848600020DFF88018088107
:100350000020DFF878188872DFF87018DFF87C0862
:1003600000F044FD0121DFF8740800F078FD01BDC4
:1003700080B50121082000F0FAFC0020DFF84C18BD
:1003800008800020DFF844184880DFF85408DFF8C0
:100390003C1848600020DFF8341808810020DFF89E
:1003A0002C188872DFF82418DFF8380800F01EFDDA
:1003B0000121DFF8300800F052FD01BD80B50121B8
:1003C000042000F0D4FC0320DFF80018088040F27D
:1003D0001940DFF8F81748600020DFF8F017488070
:1003E0000020DFF8E81708810020DFF8E0178872A6
:1003F000DFF8D817DFF8F00700F0F8FC0121DFF88C
:10040000E80700F03FFE6020DFF8C81708800120F1
:10041000DFF8C01748804FF42470DFF8B817886001
:100420000020DFF8B0178881DFF8A817DFF8B807D9
:1004300000F023FD0821DFF8B00700F0F7FD602091
:10044000DFF8901708800120DFF8881748804FF404
:10045000A470DFF8801788600020DFF878178881A3
:10046000DFF87017DFF8800700F046FD0821DFF89D
:10047000780700F0E4FD0121DFF86C0700F0EFFCE5
:1004800001BD80B240F21A4101FB00F142F210724C
:1004900091FBF2F189B2DFF85427116089B2DFF8DD
:1004A0005027116089B2DFF84C271160704780B285
:1004B00040F21A4202FB00F242F21073B2FBF3F276
:1004C000110089B2DFF830271160704780B240F226
:1004D0001A4202FB00F242F21073B2FBF3F2110077
:1004E00089B2DFF818271160704780B5DFF8100770
:1004F0004088002812D1DFF80C07007800280DD1C1
:10050000DFF8FC060088B0F5FA7F07DD0120DFF890
:10051000F41608700020DFF8F0160860DFF8E40633
:100520000078012821D1DFF8E0060068B0F5FA7FF5
:1005300012DADFF8D4060068DFF8C4164880DFF866
:10054000C0064088FFF79DFFDFF8BC060068401C2E
:10055000DFF8B416086094E00020DFF8AC160860FD
:100560000020DFF8A01608708BE0DFF894064088C2
:10057000DFF88C160988884200F08380DFF8800657
:10058000C088401CDFF87816C880DFF87406C08881
:10059000DFF86C168988884273D30020DFF8601674
:1005A000C880DFF85C06007A00285FD0DFF85006CC
:1005B0004088DFF84C16098888421FD2DFF84006D1
:1005C0004088DFF83C16097A4018DFF83416488076
:1005D000DFF82C060088DFF828164988884206D202
:1005E000DFF81C060088DFF81816488044E0DFF8C2
:1005F00010064088DFF8081648803DE0DFF8000666
:100600000088DFF8FC154988884235D2DFF8F0050C
:100610004088DFF8EC15097A89B288420AD3DFF8FE
:10062000E0054088DFF8D815097A401ADFF8D015C0
:10063000488005E0DFF8C8050088DFF8C415488069
:10064000DFF8BC054088DFF8B8150988884206D273
:10065000DFF8AC050088DFF8A81548800CE0DFF86B
:10066000A0054088DFF89815488005E0DFF8900580
:100670000088DFF88C154880DFF884054088FFF794
:1006800000FF01BD000000002DE9F8432DED068BB1
:1006900007000E00B0EE408AF0EE608A9FEDB69A39
:1006A000DFEDB59A9FEDB4AAB6F57A7F1AD930007E
:1006B00000F072FDDFF85425DFF8543500F07AFDC4
:1006C000DFF85025DFF8503500F074FD02000B0014
:1006D0000020DFF8481500F03FFE00F069FF09EE4A
:1006E000100A03E09FEDA40AB0EE409ABFB200EEFC
:1006F000107AB8EE400A30EE490AF0EE409ADFF880
:100700002005006800F09CFF8046894619EE900A9B
:1007100000F096FFDFF80C25DFF80C3500F04AFDFD
:1007200004000D0018EE900A00F08AFF22002B0052
:1007300000F040FD42464B4600F0AAFF00F038FFB3
:10074000DFF8DC140860DFF8D80490ED000ADFED74
:100750008B0AB4EE600AF1EE10FA03DBDFF8C00496
:1007600087490160DFF8B80490ED000AB5EE400A51
:10077000F1EE10FA03D5DFF8A80400210160DFF8DC
:10078000A00490ED000A09EE880AB0EE40AA9FEDA1
:100790007B0AB4EE40AAF1EE10FA03DB9FED780A73
:1007A000B0EE40AAB5EE40AAF1EE10FA03D59FEDE7
:1007B000720AB0EE40AABFB2002F03D19FED6E0ABD
:1007C000B0EE40AABDEECA0A10EE100A80B2BDEC2F
:1007D000068BBDE8F28300002DE9F8432DED048B74
:1007E0000600B0EE408AF0EE608AB0EE419ADFED8E
:1007F000629A0027B6B200EE106AB8EE400A30EEF8
:10080000480AF0EE409ADFF82404006800F018FF70
:100810008046894619EE900A00F012FFDFF80424A2
:10082000DFF8043400F0C6FC04000D0019EE100AD5
:1008300000F006FF22002B0000F0BCFC42464B46B5
:1008400000F026FF00F0B4FEDFF8E0130860DFF8E8
:10085000DC0390ED000ADFED4B0AB4EE600AF1EE26
:1008600010FA04DBDFF8C403DFF8C4130160DFF81B
:10087000BC0390ED000AB5EE400AF1EE10FA03D584
:10088000DFF8A80300210160DFF8A00390ED000A63
:1008900009EEA80ABDEEC00A10EE100A0700BFB2AA
:1008A00042F22930874202DB42F228300700B6B21A
:1008B000002E01D100200700380080B2BDEC048B6F
:1008C000BDE8F28338B504000D00E4B2012C19D163
:1008D000EDB20A2D09D101220021BD4800F0C2FB72
:1008E0000821BB4800F0A2FB45E0EDB2142D42D137
:1008F00000220021B64800F0B5FB0021B44800F00A
:1009000095FB38E0E4B2022C19D1EDB20A2D09D1E1
:1009100001220421AE4800F0A5FB0821AC4800F0FC
:100920008EFB28E0EDB2142D25D100220421A84829
:1009300000F098FB0021A64800F081FB1BE0E4B228
:10094000032C18D1EDB20A2D09D101220821A048AB
:1009500000F088FB08219E4800F07BFB0BE0EDB225
:10096000142D08D100220821994800F07BFB0021BA
:10097000974800F06EFB31BD000000000170144686
:10098000007014460120B24510B50400A948007853
:10099000012800F0C180C0F01881032800F08E808B
:1009A00060D3052800F0E48002D306282CD00CE1A7
:1009B000E4B2002C1ED114210120FFF783FF0A218D
:1009C0000220FFF77FFF14210320FFF77BFF0022A7
:1009D0004FF48071984800F035FF00224FF4806199
:1009E000954800F02FFF00224FF48051924800F00C
:1009F00029FF08E0E4B20A2C05D101224FF480510E
:100A00008D4800F01FFFE0E0E4B2002C1ED114215D
:100A10000120FFF757FF14210220FFF753FF142195
:100A20000320FFF74FFF00224FF48071824800F04F
:100A300009FF00224FF480617F4800F003FF01228C
:100A40004FF480517C4800F0FDFE0AE0E4B20A2C2D
:100A500007D100215E4800F0FEF90A210120FFF7CE
:100A600031FFB2E0E4B2002C1ED10A210120FFF7D1
:100A700029FF14210220FFF725FF14210320FFF78F
:100A800021FF00224FF480716B4800F0DBFE002252
:100A90004FF48061684800F0D5FE00224FF4805189
:100AA000654800F0CFFE08E0E4B20A2C05D101222F
:100AB0004FF48061604800F0C5FE86E0E4B2002C8F
:100AC0001ED114210120FFF7FDFE14210220FFF7A3
:100AD000F9FE14210320FFF7F5FE00224FF4807188
:100AE000554800F0AFFE01224FF48061524800F0FB
:100AF000A9FE00224FF480514F4800F0A3FE0AE007
:100B0000E4B20A2C07D10021314800F0A4F90A21EF
:100B10000320FFF7D7FE58E0E4B2002C1ED11421C9
:100B20000120FFF7CFFE14210220FFF7CBFE0A21A0
:100B30000320FFF7C7FE00224FF480713E4800F00B
:100B400081FE00224FF480613B4800F07BFE0022D2
:100B50004FF48051384800F075FE08E0E4B20A2CEA
:100B600005D101224FF48071334800F06BFE2CE078
:100B7000E4B2002C1ED114210120FFF7A3FE1421A2
:100B80000220FFF79FFE14210320FFF79BFE0122A6
:100B90004FF48071284800F055FE00224FF4806128
:100BA000254800F04FFE00224FF48051224800F00B
:100BB00049FE0AE0E4B20A2C07D10021044800F003
:100BC0004AF90A210220FFF77DFE10BD3002002005
:100BD00000000140AC010020600200200004004041
:100BE000FFE956FA000C00400008004034000140C4
:100BF000380001403C000140340800403808004003
:100C0000440100209602002074020020022B871667
:100C1000D9CE274095D626E80B2E113E00004E4037
:100C2000780200207B14AE47E17A643F7C0200200A
:100C30000020B2456402002000100240F0B4002100
:100C400000220023022400250226DFF87C713F6881
:100C500017F00C0739000F00002F04D0042F06D026
:100C6000082F08D03CE0DFF8687107603BE0DFF850
:100C70006471076037E0DFF854713F68C7F380574D
:100C80003D00DFF848713F6817F03F073E00002D38
:100C90000DD0DFF84071B7FBF6F7DFF830C1DCF8B4
:100CA00000C0CCF3881C0CFB07F73B000CE0DFF81E
:100CB0002071B7FBF6F7DFF814C1DCF800C0CCF305
:100CC000881C0CFB07F73B00DFF800713F68C7F397
:100CD00001477F1C7F003C00B3FBF4F7076002E094
:100CE000DFF8EC700760DFF8E0703F6817F0F0079E
:100CF00039000909DFF8E070CF5D3A000768BC46AB
:100D00003CFA02FCC0F804C0DFF8BC703F6817F47E
:100D1000E0573900890ADFF8C070CF5D3A004768B4
:100D2000BC463CFA02FCC0F808C0DFF89C703F6883
:100D300017F460473900490BDFF89C70CF5D3A002B
:100D40004768BC463CFA02FCC0F80CC0F0BC7047D7
:100D5000C9B2002905D0214A126802431F4B1A600C
:100D600004E01E4A126882431C4B1A607047C9B2E5
:100D7000002905D01A4A12680243194B1A6004E090
:100D8000174A12688243164B1A607047C9B200298D
:100D900005D0144A12680243124B1A6004E0114A4B
:100DA000126882430F4B1A607047C9B2002905D000
:100DB0000D4A126802430C4B1A6004E00A4A12689A
:100DC0008243094B1A6070470838024004380240D9
:100DD0000024F40000127A0028010020303802407C
:100DE0004038024044380240203802400022038844
:100DF0001A00874B98420ED08B4B98420BD0B0F123
:100E0000804F08D0834B984205D0834B984202D044
:100E1000824B984204D14FF68F731A404B881A4385
:100E20007F4B984207D07F4B984204D04FF6FF4348
:100E30001A400B891A4302804B68C3620B880385F2
:100E4000734B984202D0784B984201D18B7A03863B
:100E500001238382704741627047406A7047C9B27C
:100E6000002904D0028852F00102028004E00288C6
:100E70004FF6FE731A400280704770B400230024BE
:100E80000022058C4FF6FE7635400584058C2C003B
:100E900085882A00058B2B004FF68F752B404FF667
:100EA000FC752B400D882B434FF6FD752C408D892A
:100EB0002C434D882C43564DA84202D05A4DA8428F
:100EC00013D14FF6F7752C40CD892C434FF6FB75A7
:100ED0002C408D882C434FF6FF652A404FF6FF5576
:100EE0002A400D8A2A434D8A2A43828003838D68D3
:100EF0004563048470BC704770B400230024002252
:100F0000058C4FF6EF7635400584058C2C008588DE
:100F10002A00058B2B0048F6FF752B404FF6FF4546
:100F20002B400D8853EA05234FF6DF752C408D8941
:100F300054EA05144D8854EA0514354DA84202D0F0
:100F4000394DA84217D14FF67F752C40CD8954EA10
:100F500005144FF6BF752C408D8854EA05144FF6E2
:100F6000FF352A404FF2FF752A400D8A52EA85026A
:100F70004D8A52EA8502828003838D6885630484EA
:100F800070BC704770B4002300240022058C4FF61B
:100F9000FF6635400584058C2C0085882A00858BEA
:100FA0002B004FF68F752B404FF6FC752B400D88AC
:100FB0002B434FF6FF552C408D8954EA05244D886C
:100FC00054EA0524124DA84202D0174DA84217D169
:100FD0004FF2FF752C40CD8954EA05244FF6FF35BA
:100FE0002C408D8854EA05244EF6FF752A404DF6B4
:100FF000FF752A400D8A52EA05124D8A52EA0512FF
:10100000828083838D68C563048470BC7047000050
:10101000000001400004004000080040000C0040B7
:101020000010004000140040000401400022038B27
:101030001A004FF6F7731A400A43028370470022E2
:10104000038B1A004FF2FF731A4052EA0122028307
:1010500070470022838B1A004FF6F7731A400A4339
:101060008283704730B4002301248C402300048C19
:101070009C430484048C92B212FA01F52C4304843C
:1010800030BC7047C9B2002906D0B0F8442052F4F1
:101090000042A0F8442005E0B0F844205204520C6D
:1010A000A0F844207047D2B2002A03D083890B43B2
:1010B000838102E083898B438381704781827047FB
:1010C00030B40200002000230024158A0D402B00BC
:1010D00095890D402C009BB2002B05D0A4B2002CAA
:1010E00002D00125280001E000252800C0B230BC54
:1010F000704789B2CA430282704770477047704791
:101100007047704770477047704770471D490143EB
:101110001D4A1160704770B4002400220F23C1786B
:10112000002923D01849096811F4E061D1F5E06184
:10113000090A0C00D4F104010A00DBB219000B000B
:101140002341417891400C00817819400C432401DF
:101150000E4905786C540121057815F01F05A9404A
:101160000B4D0678761145F8261009E00121057827
:1011700015F01F05A940074D0678761145F8261091
:1011800070BC70470000FA050CED00E000E400E0E0
:1011900000E100E080E100E0010000BF09D0B0FA0A
:1011A00080F18840C91CC1F58461090501EBD0219B
:1011B00040057047B0B581EA030C0CF0004C40F2DA
:1011C000FF7515EA11541DBF15EA1357AC42AF4223
:1011D00039E0E41923EA455343F48013C90241F08E
:1011E000004141EA505EC7021100A7FB020200283D
:1011F0004FF00000EEFB01204FF00001E3FB072160
:1012000018BF42F00102401800214941E3FB0E01E2
:10121000A4F580640F0302D252004041494154F1C9
:1012200001046CDD470872F1004250F1000051EBFF
:101230000451A1F580115CBF41EA0C01B0BD4CEA3C
:1012400005510020B0BD05EA1357AC4214BFAF42B0
:1012500041E050EA410E1CBF52EA430E02E06146F3
:101260000020B0BD24423C441BD15FEA070EF6D0FB
:10127000090302BF01460020AEF1140EB1FA81F756
:10128000AEEB070401FA07FE0C37C7F1200100FAA4
:1012900007F7C8404EEA000E23EA455343F4801393
:1012A000A2E733F00043B3FA83F704BFB2FA82FE39
:1012B00077440B3FE41BB7F1200E2FBF02FA0EF369
:1012C000BB40C7F1200E22FA0EFE38BF43EA0E03E0
:1012D000BA40641C82E750EA410E14BF52EA430E42
:1012E0006FF000014FF4001717EB430F8ABF194648
:1012F00017EB410FB5E74CEA05510020B0BDD4F122
:101300000104B4F120070FDAC4F12007520828BF06
:1013100042F0010210FA07F501FA07F7E1BF2A438C
:10132000E0403843E1400FE0352C98DCC7F1200461
:1013300052EA400220FA07F218BF42F0010231FAE5
:1013400007F0A1400A43002172F1004250F1000071
:1013500051EB0C01B0BD00002DE9F04140F2FF75EA
:1013600081EA030C0CF0004C15EA11541DBF15EA7C
:101370001357AC42AF42E9E0BC41C1F31301C3F3E0
:101380001303801A994143F4801304D2641E400071
:10139000494180185941C90241EA5051B1FBF3F665
:1013A00003FB1611A2FB0675D7EBC020A94102D2A0
:1013B000761E80185941C90241EA5051B1FBF3FE33
:1013C00003FB1E11A2FB0E75D7EBC020A94103D26F
:1013D000AEF1010E80185941890241EA905176051B
:1013E00046EA8E2EB1FBF3F603FB1611A2FB06753F
:1013F000D7EB8020A94102D2761E80185941C9023C
:1014000041EA50514EEA060EB1FBF3F603FB16110A
:10141000A2FB0675D7EBC020A94102D2761E801828
:101420005941C90241EA5051B1FBF3F703FB1711CF
:10143000A2FB0735D3EBC020A94167F100070CBF21
:10144000004247F0010766F3D5274FEA1E31B8087E
:1014500014F5806414DDBD0775F1004250EB0E50A9
:1014600051EB045111F5801F5CBF41EA0C01BDE84E
:10147000F0814CF07F6141F0E0410020BDE8F08157
:10148000BD076D0840EA0E5041F48011D4F101040B
:10149000B4F120060ADAC4F120060200E04001FAA5
:1014A00006F3E1401843B24015430EE0342C14DC3F
:1014B000C6F1200445EA40056D0820FA06F21543FE
:1014C00021FA06F0A1400D43002175F1004250F1D0
:1014D000000051EB0C01BDE8F08100205FEA0C0137
:1014E000BDE8F081CFB992185B41B3FA83F704BF2E
:1014F000B2FA82F6BF190B3FB7F120062FBF02FAEE
:1015000006F3BB40C7F1200622FA06F638BF334384
:10151000BA401CB1E419641E2FE77F4231F000414C
:10152000B1FA81F404BFB0FA80F6A4190B3CB4F10F
:1015300020062FBF00FA06F1A140C4F1200620FAD0
:1015400006F638BF3143A0403C1B16E7AC421ABF39
:1015500005EA1357AF4214E050EA41061CBF52EAB5
:101560004306BFE750EA4107304661461CBF41EAE7
:101570000551BDE8F08152EA430C08BFC143BDE804
:10158000F08100204FF4001616EB410F98BF16EBC8
:10159000430F08BF16EB410F24BFC14305E016EB14
:1015A000430F0CBF61464CEA0551BDE8F0810000D5
:1015B0004FEAF17CBCF1E04C2CBFBCF5001F11E000
:1015C0005FEA4C0C34BFBCF17F5F2EE05FEA9C0CFD
:1015D0004FEA0C1C4FEA3C0CC10071F100414CEB8E
:1015E00050707047C90241EA5051C00218BF41F023
:1015F000010141F000414FEA6C50C0F1090021287F
:1016000010D240EACC7CCCF1200C11FA0CF070F135
:101610000040CCF1200C21FA0CF00CF0004C40EB17
:101620000C0070474FEACC707047490011F5001F5D
:1016300004D84FEACC10FF30C0057047C817704778
:101640005FF0FF0C1CEAD05114BF614506E0C110E9
:10165000400721F0E04101F16051704779B900F095
:10166000004100020AD0B0FA80FC00FA0CF001F14F
:101670006051A1EB0C5101EBD021400570474102B4
:101680000CBF40F4E0016FF0000100207047000043
:10169000F0B44FF0004591EA030C44BF6B4000F0FA
:1016A0000BB900BF841A71EB030603D2001BB141D2
:1016B000121973414FF4001C1CEB410F34BF7CEB3B
:1016C000430443E00C0DA4EB1356352E50DC45EAE1
:1016D000C323DB0A45EAC121C912B6F120050DDD9D
:1016E00063FA05F6EB4086EA0305124218BF45F09F
:1016F0000105C01851F100010CD213E062FA06F5A1
:10170000F2405540F3415A40B340F3405A408018EC
:10171000594107D349085FEA30005FEA350528BF21
:1017200045F0010501F58011420875F1004250F1C4
:10173000000041EB0451F0BC4FF4001C1CEB410FC6
:1017400038BF70470020090D090570471CEB410F99
:1017500010D252EA43060BD0BCEB410F05D80C0D5A
:10176000AB43661E342EB5DD02E0AB438018594111
:10177000F0BC7047F0BC7047F0B400220023002496
:1017800000252A00102A4AD2012595402B000D6819
:101790001D402C009C4240D1056803261700FFB273
:1017A0007F00BE40B543056005680E791700FFB2A3
:1017B0007F00BE40354305600D79012D02D00D79C3
:1017C000022D1AD1856803261700FFB27F00BE40A4
:1017D000B543856085684E791700FFB27F00BE4033
:1017E00035438560456801269640B54345604568A8
:1017F0008E799640B6B235434560C568032617001A
:10180000FFB27F00BE40B543C560C568CE79170002
:10181000FFB27F00BE403543C560521CB2E7F0BC4A
:10182000704702000020136989B20B4202D00123E5
:10183000180001E000231800C0B270470183704710
:1018400041837047D2B2002A01D0018300E0418376
:101850007047426989B24A4042617047F0B4002340
:101860000024D2B211F00705EDB2AD0012FA05F571
:101870002B0089B2CD1010EB850589B2CE1010EB8C
:101880008606366A0F2711F0070C5FFA8CFC5FEAB8
:101890008C0C17FA0CF7BE432E6289B2CD1010EBF8
:1018A00085052D6A1D432C0089B2CD1010EB8505EE
:1018B0002C62F0BC70470000841A71EB030604D25E
:1018C0006E40001BB141121973414FF4001C1CEB18
:1018D000410F34BF7CEB430684E00C0DA4EB1356A0
:1018E000362E7DDC012E43DC45EAC32343EA525306
:1018F00012BFD20292025B08240545EAC12141EAE7
:101900005051D2EBC020994125D407D1B0FA80F6CE
:1019100010FA06F164D00020203608E0B1FA81F612
:10192000B140C6F1200220FA02F21143B0404FEA62
:10193000F474B4EB465434F001064FEA74040AD848
:10194000D6F50016760D04F00044F04061FA06F278
:101950005040F1404840C00A40EA415021F0004167
:1019600028BF5FEA500550F1000044EBD12137E079
:1019700045EAC323DB0A45EAC121C90AB6F12005BD
:101980000EDD42EA0242120CC5F1200603FA06F609
:10199000EB4042EA06056D42984161F100010DE01D
:1019A00062FA06F5F240554063FA06FC82EA0C0240
:1019B000F3405A406D42904161EB030111F4801FE6
:1019C00005D1641E620502D06D004041494121F4F9
:1019D0008011430875F1004350F1000041EB0451C0
:1019E000F0BC70471CEB410F15D223F0004352EAC4
:1019F00043060BD04FEA4C0CBCEB410F04D80C0D46
:101A0000661E342EB7DDEBE7801A994150EA410695
:101A100008BF0021E4E708BF1CEB430F28BF6FF0AD
:101A20000001DDE780B50020ADF80000DFF8940785
:101A30000078012812D0022800F03181032800F03C
:101A40005F81052800F01781062800F045810828ED
:101A500000F073810A2800F0C18081E10223DFF8E1
:101A600068278121DFF8640700F063FA002825D099
:101A7000DFF85C070078401CDFF854170870DFF8C7
:101A8000500700786428C0F2A880DFF84807007A81
:101A900050F00800DFF83C1708720020DFF8341718
:101AA00048800A20DFF81C1708700020DFF8201794
:101AB00008700020DFF8201708708EE0DFF80807B4
:101AC00000784FF48071DFF80027527801FB002086
:101AD00000EE100AB8EEC00ADFF8000780ED000A39
:101AE000DFF8FC06008800EE100AB8EE400ADFF8C6
:101AF000EC06D0ED000A30EEC00ADFF8E8060088F8
:101B000000EE900AF8EE600A80EE200ADFF8CC06BC
:101B100080ED000ADFF8C40690ED000AB5EE400A39
:101B2000F1EE10FA0ED5DFF8B40690ED000ADFED05
:101B30008D0AB4EE600AF1EE10FA03D50820DFF842
:101B400084160870DFF8940690ED000AB5EE400A9E
:101B5000F1EE10FA04D8DFF884060021016005E0F8
:101B6000DFF87806DFF8741609680160DFF86C06A4
:101B700090ED000ADFED7C0A20EE200ABDEEC00ADF
:101B800010EE100ADFF84C164880DFF84806007A9D
:101B9000C0F3C000C0B200281FD0DFF83C060078B8
:101BA000401CDFF834160870DFF82C060078142883
:101BB00013DBDFF82006007A10F0F700DFF81416C8
:101BC0000872DFF81006007A10F0FE00DFF8041645
:101BD00008720020DFF800160870C1E0DFF8080680
:101BE0000078401CDFF800160870DFF8E805007A7E
:101BF00050F00800DFF8DC150872DFF8EC0500781B
:101C00000A2805D101215FF40010FFF7CEF831E07A
:101C1000DFF8D40500780B2805D100215FF400100F
:101C2000FFF7C3F826E0DFF8C0050078C82804D124
:101C3000DFF8980500F065FE1CE0DFF8AC050078E1
:101C4000FA2817DB0020DFF8A01508708021DFF8E4
:101C50007C0500F077FA322804D10520DFF86415FE
:101C6000087007E00223DFF884258021DFF85C0597
:101C700000F0DFF974E00223DFF874258021DFF83B
:101C80004C0500F0D6F9002804D00A20DFF83415FE
:101C9000087003E00220DFF82C15087060E00223D2
:101CA00000AA8121DFF8240500F043F9002804D0C0
:101CB0000A20DFF8101508700DE09DF80000DFF82D
:101CC000241548709DF80100DFF8181508700620EB
:101CD000DFF8F014087043E00223DFF818258021B4
:101CE000DFF8E80400F0A5F9002804D00A20DFF8A6
:101CF000D414087003E00320DFF8C81408702FE044
:101D0000022300AA8121DFF8C40400F012F90028A0
:101D100004D00A20DFF8AC1408700DE09DF8000034
:101D2000DFF8BC1448709DF80100DFF8B4140870A7
:101D30000820DFF89014087012E00223DFF8B824BE
:101D40008021DFF8880400F074F9002804D00A200C
:101D5000DFF87014087003E00120DFF868140870E1
:101D600001BD0000000048C20000C84270B584B048
:101D70000020ADF802000020ADF8000001A800210D
:101D8000002206C008380026002400250020060096
:101D9000F6B20A2E13DA0020C0B2FA2801DA401C8B
:101DA000FAE70223DFF848248021DFF8200400F05E
:101DB00040F9002801D114200600761CE8E7DFF87E
:101DC0001404007A10F0FE00DFF808140872DFF83F
:101DD0000404007A10F0F700DFF8F8130872F6B286
:101DE000142EC0F2A58000200500EDB21E2D80F259
:101DF00096800223DFF8F8238021DFF8D00300F07B
:101E000018F9002840F0838002230DF1020281219D
:101E1000DFF8B80300F08DF8002878D19DF80200B3
:101E2000DFF8C01348709DF80300DFF8B81308709E
:101E3000DFF8B00300880B2869DBDFF8A80300880F
:101E4000B0F57A7F63DA0223DFF8A8238021DFF878
:101E50007C0300F0EEF8002859D1022300AA81216A
:101E6000DFF8680300F065F8002850D19DF8000005
:101E7000DFF86C1348709DF80100DFF864130870F8
:101E8000DFF85C03008846F2A91188423FDBDFF8E7
:101E9000500300884AF6C871884238DA0223DFF816
:101EA0005C238021DFF8240300F0C3F800282ED142
:101EB000062301AA8121C54800F03BF8002826D15D
:101EC0009DF80400DFF83813C8709DF80500DFF8AE
:101ED000301388709DF80700C94948709DF80800C4
:101EE000C749087000200400E4B2052C0DDA022373
:101EF000C14A8021B54800F09CF80020C0B2FA2801
:101F000001DA401CFAE7641CEEE7642005000020BB
:101F1000C0B2FA2801DA401CFAE76D1C65E7EDB2A1
:101F20001E2D05D1AB48007A50F00100A949087276
:101F30007FBDF8B504000D0016001F0040F6B83054
:101F4000B0490860208B80070ED5AE480068401E5F
:101F5000AC490860AB4800680028F3D1208850F4F1
:101F600000702080032063E0208850F4806020808F
:101F7000208850F48070208040F6B830A149086075
:101F8000A08AC0070ED49F480068401E9D49086083
:101F90009C4800680028F3D1208850F4007020800D
:101FA000032045E0EDB22582A08A80070ED4954833
:101FB0000068401E93490860924800680028F3D1E9
:101FC000208850F400702080032031E0A08A208B0C
:101FD000BFB2002F25D0BFB2012F04D120884FF609
:101FE000FF310840208040F6B830864908608649B5
:101FF000200000F07BFD00280ED182480068401EC2
:10200000804908607F4800680028F0D1208850F49B
:102010000070208003200BE0208A3070761C7F1E29
:10202000D6E7208850F400702080A08A208B002002
:10203000F2BD70B4040040F6B830724D2860208BB9
:1020400080070ED56F480068401E6E4D28606D48B1
:1020500000680028F3D1208850F40070208003200D
:102060006EE0208850F48070208040F6B830654DD6
:102070002860A08AC0070ED462480068401E614DE7
:102080002860604800680028F3D1208850F4007070
:102090002080032054E040F6B8305A4D2860C9B281
:1020A0002182A08A80070ED456480068401E554DF4
:1020B0002860544800680028F3D1208850F400704C
:1020C000208003203CE0A08A208B002080B29BB2BD
:1020D000984230D240F6B8354A4E3560A58A2D0672
:1020E0000ED4484D2D686D1E464E3560454D2D6809
:1020F000002DF3D1208850F40070208003201FE0D1
:1021000015782582521C40F6B8353E4E3560A58ABA
:102110006D070ED43B4D2D686D1E3A4E3560394D1E
:102120002D68002DF3D1208850F40070208003200A
:1021300006E0401CCAE7208850F400702080002090
:1021400070BC7047020040F6B8302E4B1860108803
:1021500050F48070108040F6B8302A4B1860908A96
:10216000C0070ED427480068401E264B186025483B
:1021700000680028F3D1108850F4007010800A2005
:102180001EE040F6B8301F4B1860C9B21182908A29
:1021900080070ED41B480068401E1A4B186019486F
:1021A00000680028F3D1108850F4007010801420CB
:1021B00006E0908A108B108850F400701080322056
:1021C0007047000063010020860200200058004094
:1021D0008F02002024020020900200205C020020D8
:1021E00054020020580200208E02002040010020EE
:1021F0003A0100203C010020380100203E0100206F
:10220000500200204C0200204000030070B586B050
:10221000002400200400DFF85007844201D2641C2F
:10222000F9E700A8DFF84417142200F07BFC4FF414
:102230004070FEF76BFFDFF8380700F01EFADFF89A
:10224000340700F0D1FADFF8300700F043F9DFF887
:102250002C0700F03FF9DFF8280700F03BF9DFF822
:10226000240700F037F9DFF8200700F033F900F019
:10227000C6F8DFF8180700F044FBFFF777FD00F021
:102280005EF800F07BFCFDF77FFF0026F6B2052E1E
:1022900037DADFF8FC0600680500F6B2022096FB8C
:1022A000F0F101FB106100290FD00821DFF8D806FA
:1022B000FFF7C6FA0421DFF8D006FFF7CAFA1021AB
:1022C000DFF8C406FFF7C5FA0EE00821DFF8B8060C
:1022D000FFF7B4FA0421DFF8B006FFF7BAFA1021CD
:1022E000DFF8A406FFF7B5FA00A8F6B230F816003A
:1022F00010FA85F0DFF8981609688842F4D2761C47
:10230000C4E70421DFF88006FFF79AFA0821DFF816
:102310007806FFF795FA1021DFF86C06FFF790FAC0
:1023200045F2555000F02CFC032000F02DFC40F647
:10233000BC2000F02DFC00F02FFC06B070BD00B5F5
:1023400085B001214FF48070FEF720FD0020009041
:102350005FF480300190002002904FF440700390B1
:1023600000A800F04DFC0020DFF8281608600020CF
:10237000DFF8201608710020DFF8181648710020D9
:10238000DFF8101688600020DFF80816C86000200B
:10239000DFF8001608610520DFF8F8150875DFF88A
:1023A000F415DFF8F40500F003FC0121DFF8E8057F
:1023B00000F037FC012301220A21DFF8DC0500F0E0
:1023C0003DFC012301220B21DFF8CC0500F036FC97
:1023D000012301220C21DFF8C00500F02FFC0123AE
:1023E00001220D21DFF8B00500F028FC01230122B5
:1023F0000F21DFF8A40500F021FC05B000BD80B579
:1024000001210120FEF7A4FC01210220FEF7A0FC1F
:1024100001214FF48040FEF7B9FC0621002000F0B6
:10242000A7FC0721002000F0A3FCC020DFF86C15FA
:1024300008600120DFF8641588710020DFF85C1562
:1024400008711020DFF854154871DFF8500500F0CE
:10245000B9FC1720DFF8481508700020DFF8401598
:1024600048700020DFF8381588700120DFF830153B
:10247000C870DFF82C05FEF74EFE0021012000F0A9
:1024800077FC0120DFF8141508600120DFF80C1537
:1024900088710020DFF8041508711020DFF8FC14A3
:1024A0004871DFF8F80400F08DFC0620DFF8F01426
:1024B00008700020DFF8E81448700020DFF8E0140E
:1024C00088700120DFF8D814C870DFF8D404FEF754
:1024D00022FE01BDF8B50400DFF89C04844206D159
:1024E0000020050001210120FEF732FC2CE0DFF87E
:1024F0008C04844206D10120050001210220FEF750
:1025000027FC21E0DFF87804844206D10220050090
:1025100001210420FEF71CFC16E0DFF86804844269
:1025200006D10320050001210820FEF711FC0BE075
:10253000DFF85404844206D1042005000121102054
:10254000FEF706FC00E097E000200600F6B2102E31
:1025500080F29280DFF84C04EDB24FF4A07101FBE1
:102560000500F6B2142101FB060040790700FFB216
:102570000F2F00F07F80DFF82C04EDB24FF4A07134
:1025800001FB0500F6B2142101FB0600C068DFF86C
:1025900018140860DFF80C04EDB24FF4A07101FBD1
:1025A0000500F6B2142101FB06008079DFF8F8136C
:1025B0000871DFF8F003EDB24FF4A07101FB0500E4
:1025C000F6B2142101FB0600C079DFF8DC13887134
:1025D000DFF8D003EDB24FF4A07101FB0500F6B2B5
:1025E000142101FB0600007ADFF8BC134871DFF804
:1025F000B403EDB24FF4A07101FB0500F6B2142153
:1026000001FB0600407ADFF8A013C871DFF89813C9
:102610002000FFF7B1F8DFF89003007902281BD102
:10262000DFF88003EDB24FF4A07101FB0500F6B2B4
:10263000142101FB0600827ADFF86803EDB24FF443
:10264000A07101FB0500F6B2142101FB0600018A0E
:102650002000FFF703F90DE0FFB2012F05D1208B19
:102660000121B1400843208304E0608B0121B14087
:1026700008436083761C69E7F1BD38B50400BC48A7
:10268000844202D1002005000CE0C848844202D1F7
:102690000120050006E0C648844202D10220050060
:1026A00000E0A0E0C348EDB2242101FB0500807AE0
:1026B000012840F09880EDB2002D09D10121BD48DC
:1026C000EDB2242202FB0500006AFEF75FFB08E082
:1026D0000121B848EDB2242202FB0500006AFEF792
:1026E00046FBB448EDB2242101FB0500C068B249A5
:1026F0000860B048EDB2242101FB0500008AAE4914
:102700008880AC48EDB2242101FB0500408AAA492B
:10271000C880A848EDB2242101FB0500808AA649A3
:102720000881A448EDB2242101FB0500C08AA2491A
:102730004881A048EDB2242101FB0500008B9E4991
:1027400088819D49200000F09DFB9A48EDB224212C
:1027500001FB0500807E012841D101229548EDB2A0
:10276000242101FB0500818B200000F01BFCEDB251
:10277000002D0FD125208A4908700520884948700E
:1027800000208749887001208549C8708448FEF779
:10279000C2FC24E0EDB2012D0FD126208049087043
:1027A00006207F49487000207D49887001207C49BF
:1027B000C8707B48FEF7AFFC11E0EDB2022D0ED1E0
:1027C0002720774908700720754948700020744910
:1027D000887001207249C8707148FEF79CFC012185
:1027E000200000F0CDFB31BD38B5040061488442C3
:1027F0000AD1002005007148EDB2242101FB05003B
:10280000407A01287CD100E07AE001216B48EDB2EA
:10281000242202FB0500006AFEF7A9FA6748EDB220
:10282000242101FB05004089654988816348EDB298
:10283000242101FB05008089614948805F48EDB291
:10284000242101FB0500C0895D4908805B48EDB289
:10285000242101FB0500008A594988805748EDB2C0
:10286000242101FB0500408A5549C8805348EDB238
:10287000242101FB0500808A514908814F48EDB2AF
:10288000242101FB0500C08A4D4948814B48EDB227
:10289000242101FB0500008B4949C8814748EDB25E
:1028A000242101FB0500408B454908824449200052
:1028B00000F0ECFB4148EDB2242101FB0500007F54
:1028C000012819D101223D48EDB2242101FB050068
:1028D000C18BC9B2200000F00BFC242030490870E5
:1028E00000202F49487002202D49887001202C4972
:1028F000C8702B48FEF70FFC0121200000F0E6FB1A
:1029000031BD10B504002F48844205D101215FF488
:102910000010FEF72CFA09E01C48844205D1012181
:102920005FF48000FEF723FA00E01CE02648274908
:1029300008600020254988804BF6FF702349C88035
:102940000020224908814FF48060204948814FF4DB
:1029500080401E4988811D49200000F039F801217E
:10296000200000F0B5F810BDC02709007448000829
:102970000010014000380040000002400004024006
:1029800000080240000C02400010024000580040C5
:10299000240400406801002000200140440200207F
:1029A000600200207C3100083C020020004400400E
:1029B00000480040A0470008E8010020C447000884
:1029C0009801002000540040400D0300F801002051
:1029D0002DE9F04385B004000D005FF000090026EA
:1029E0000427DFF8E080A08881464FF6C07010EA27
:1029F000090900A8FEF722F9029880463248B8FB80
:102A0000F0F0060056EA0909A4F8049020884FF671
:102A1000FE71084020800020814628682B498842AA
:102A20000ED228684000B8FBF0F00700BFB2042FB8
:102A300001DA0420070057EA0909701C208426E007
:102A4000E8884BF6FF71884206D128680321484385
:102A5000B8FBF0F0070007E0286819214843B8FBED
:102A6000F0F0070057F48047380501D157F001070F
:102A700057F4004050EA0909B6B24FF4967000FBD3
:102A800006F04FF47A7190FBF1F0401C2084A4F81A
:102A90001C90208850F001002080208881464FF64D
:102AA000F53010EA0909A8886989084350EA09093C
:102AB000A4F80090A88929890843208105B0BDE8C1
:102AC000F083000000127A0040420F00A18601004E
:102AD000C9B2002904D0028852F00102028004E049
:102AE00002884FF6FE731A400280704770B40200ED
:102AF0000023002400250020968A3400168B350020
:102B00002D0455EA04063602360A330011EA03069C
:102B10008E4202D10126300001E000263000C0B212
:102B200070BC7047103A07D330B4B1E83810103A8F
:102B3000A0E83810F9D230BC530724BFB1E8081020
:102B4000A0E8081044BF51F8043B40F8043BD2070A
:102B500024BF31F8022B20F8022B44BF0B780370FE
:102B60007047083A07D3B1E80810083A40F8043B28
:102B700040F804CBF7D25307E4E7704770470000F2
:102B800080B2084908607047C0B2074908607047C2
:102B900080B20649086070474CF6CC400149086095
:102BA0007047000000300040043000400830004012
:102BB00030B40023002244682300624C23400C7987
:102BC0000D6855EA042423434360846823005E4C67
:102BD00023400C69CD682C438D682C434D7954EA11
:102BE000450423438360C46A230033F470030C7DDF
:102BF000641E2243D2B253EA0253C36230BC704710
:102C00000021524A12681100514A1140026843687B
:102C10001A4383681A43C3681A4311434B4A11602D
:102C20007047C9B2002904D0826852F00102826064
:102C300003E082685208520082607047F0B40025B9
:102C40000024C9B20A2917DBC66835000726B1F18E
:102C50000A075FF0030C17FB0CF7BE403400A543D6
:102C6000DBB2B1F10A06032716FB07F613FA06F6E4
:102C700034002543C56011E00669350007260327A7
:102C800011FB07F7BE403400A543DBB2032611FB5E
:102C900006F613FA06F6340025430561D2B2072A78
:102CA00015DA466B35001F26571E5FF0050C17FB23
:102CB0000CF7BE403400A543C9B2561E052716FBCB
:102CC00007F611FA06F63400254345632FE0D2B229
:102CD0000D2A15DA066B35001F26D71F5FF0050C8D
:102CE00017FB0CF7BE403400A543C9B2D61F052719
:102CF00016FB07F611FA06F634002543056316E0C5
:102D0000C66A35001F26B2F10D075FF0050C17FBF0
:102D10000CF7BE403400A543C9B2B2F10D06052739
:102D200016FB07F611FA06F634002543C562F0BC1F
:102D30007047816851F0804181607047C06C80B2FB
:102D400070470000FFFEFFFCFDF7FFC004230140B9
:102D5000E030FCFF020000201368C9B20B4202D031
:102D60000123180001E000231800C0B270470000E2
:102D700030B400220F2311F00304E4B2A400A340F6
:102D80001A000F4BC9B28C1053F8243093430C4CEB
:102D9000C9B28D1044F82530094BC9B28C1053F8D4
:102DA0002430C0B211F00304E4B2A40010FA04F419
:102DB0002343034CC9B28D1044F8253030BC704712
:102DC0000838014000212A4A11008279002A36D0B1
:102DD000274A126803689A43254B1A60254A1268ED
:102DE00003689A43234B1A60027989180A680368BA
:102DF0001A430A60204A126803689A431E4B1A60FD
:102E00001E4A126803689A431C4B1A604279102AC2
:102E10000CD1194A126803681A43174B1A60174AF3
:102E2000126803681A43154B1A600EE0104A11002D
:102E3000427989180A6803681A430A6005E0027932
:102E400089180A6803689A430A60704701000020E5
:102E50000B4A12680A4202D00122100001E000224F
:102E60001000C0B2704706490860704700000000BB
:102E7000003C0140043C0140083C01400C3C014046
:102E8000143C01402DE9F04385B004000D005FF0D3
:102E90000009002600275FF00008A8890028208A82
:102EA000814639F44059E88850EA0909A4F810909D
:102EB000A0898146314810EA0909A8882989084370
:102EC0006989084350EA0909A4F80C90A08A814650
:102ED00039F44079A88950EA0909A4F8149000A8A7
:102EE000FDF7ACFE2348844202D02348844202D13D
:102EF0000398060001E002980600A089000408D5A6
:102F0000192000FB06F029684900B0FBF1F007002A
:102F100007E0192000FB06F029688900B0FBF1F0FA
:102F200007006420B7FBF0F0000181465FEA19104A
:102F3000642101FB10708046A08900040AD55FEA75
:102F4000C80032306421B0FBF1F010F0070050EA05
:102F5000090909E05FEA081032306421B0FBF1F0A2
:102F600010F00F0050EA0909A4F8089005B0BDE878
:102F7000F08300000010014000140140F3E9FFFF5E
:102F8000C9B2002904D0828952F40052828104E03F
:102F900082894DF6FF731A4082817047CA05D20DAF
:102FA00082807047F0B4002300240025002689B2F7
:102FB00040F66A17B94206000F00FFB27F09FFB260
:102FC0003B0089B211F01F073C000127A7403D00DC
:102FD000012B01D10C3604E0022B01D1103600E0A8
:102FE0001436D2B2002A03D037682F43376002E08C
:102FF0003768AF433760F0BC704770B402000023FD
:1030000000250024002089B240F66A16B1420E0065
:10301000F6B27609F6B2340089B211F01F06350017
:10302000012616FA05F5012C02D19689354006E0F5
:10303000022C02D1168A354001E0968A354089B2C9
:103040000E0AB6B23300012616FA03F3168833408F
:10305000002D04D0002B02D00126300001E0002614
:103060003000C0B270BC704710B40022002389B297
:1030700040F66A14A14289B20C0A2200012494404D
:1030800023009BB2DC43048010BC704710B40022C4
:1030900003881A0012F441520B884C8823438C8811
:1030A0002343CC8823430C8923434C8923438C89B5
:1030B0002343CC8923431A430280838B4FF2FF744E
:1030C000234083830B8A038210BC7047C9B2002956
:1030D00004D0028852F04002028004E002884FF6D9
:1030E000BF731A40028070478089704781817047A2
:1030F00030B400230024C9B20D09EDB22B00012524
:103100009D402C00D2B2002A03D0858825438580BB
:1031100002E08588A543858030BC7047F0B402008A
:103120000020002300250024012611F00F07BE40D7
:103130003300C9B20E09F6B23500012616FA05F5BC
:1031400096882E40340016891E4205D0A4B2002C69
:1031500002D00126300001E000263000C0B2F0BCF1
:10316000704710B40022012311F00F04A3401A008D
:1031700092B2D343038110BC70470000504130002D
:10318000000000000000000001000000000000003E
:10319000504131000000000001000000020000006A
:1031A000010000005041320000000000010000005A
:1031B0000400000002000000504133000000010044
:1031C000000001000800000003000000504134002E
:1031D00000000001000200001000000004000000D8
:1031E00050413500000000000100000020000000F8
:1031F00005000000504136000000000003010000FF
:1032000040000000060000005041370000000000B0
:10321000030100008000000007000000504138005A
:103220000000000001010000000100000800000093
:1032300050413900000102000100070000020000B7
:103240000900000050413130000102000100070078
:10325000000400000A00000050413131000000006D
:1032600001000000000800000B0000005041313256
:103270000000000001000000001000000C00000031
:1032800050413133000F0201010000000020000016
:103290000D00000050413134000F02010100000018
:1032A000004000000E00000050413135000F0201C7
:1032B00001000000008000000F00000050423000BC
:1032C00000000000030100000100000000000000F9
:1032D0005042310000000001000000000200000028
:1032E0000100000050423200000000010002000016
:1032F000040000000200000050423300000F0201F1
:1033000001000000080000000300000050423400EB
:10331000000F020101000000100000000400000086
:1033200050423500000000010002000020000000B3
:1033300005000000504236000000000100020000BD
:10334000400000000600000050423700000000016D
:10335000000200008000000007000000504238001A
:103360000000000101000000000100000800000052
:10337000504239000000000101000000000200007E
:103380000900000050423130000102010100040038
:10339000000400000A000000504231310001020127
:1033A00001000400000800000B0000005042313210
:1033B0000001010001000100001000000C000000ED
:1033C00050423133000102000100050000200000DE
:1033D0000D000000504231340001020001000500E0
:1033E000004000000E000000504231350001020094
:1033F00001000500008000000F0000005043300075
:1034000000010300010003000100000000000000B3
:1034100050433100000103000100030002000000DE
:1034200001000000504332000001030001000300CE
:1034300004000000020000005043330000010300BC
:1034400001000300080000000300000050433400A6
:103450000001030001000300100000000400000050
:10346000504335000001030001000300200000006C
:10347000050000005043360000010001010000007B
:10348000400000000600000050433700000100012A
:1034900001000000800000000700000050433800D9
:1034A0000001000101000000000100000800000010
:1034B000504339000001000101000000000200003B
:1034C00009000000504331300001000101000000FC
:1034D000000400000A0000005043313100010001E7
:1034E00001000000000800000B00000050433132D2
:1034F0000001000101000000001000000C000000AD
:1035000050433133000100010000000000200000A2
:103510000D000000504331340001000100000000A4
:10352000004000000E000000504331350001000152
:1035300000000000008000000F0000005044300038
:103540000001000101000000010000000000000077
:1035500050443100000100010100000002000000A1
:103560000100000050443200000100010001000091
:10357000040000000200000050443300000100017C
:103580000001000008000000030000005044340067
:103590000001000100010000100000000400000014
:1035A000504435000001000101000000200000002F
:1035B0000500000050443600000100010100000039
:1035C00040000000060000005044370000010001E8
:1035D0000001000080000000070000005044380097
:1035E00000010001010000000001000008000000CF
:1035F00050443900000100010100000000020000F9
:1036000009000000504431300001000100020000B8
:10361000000400000A0000005044313100010001A4
:1036200000020000000800000B000000504431328E
:103630000001020001000200001000000C00000068
:10364000504431330001020001000200002000005C
:103650000D00000050443134000100010002000060
:10366000004000000E000000504431350001000110
:1036700000020000008000000F00000050453000F4
:103680000000000100000000010000000000000038
:103690005045310000000001000000000200000061
:1036A0000100000050453200000001000000010050
:1036B000040000000200000050453300000001003B
:1036C0000000010008000000030000005045340025
:1036D00000000100000001001000000004000000D4
:1036E00050453500000000010000000020000000EF
:1036F00005000000504536000000000100000000F9
:1037000040000000060000005045370000000001A6
:103710000000000080000000070000005045380055
:10372000000101000100010000010000080000008C
:1037300050453900000102000100010000020000B4
:103740000900000050453130000101000100010076
:10375000000400000A000000504531310001020061
:1037600001000100000800000B000000504531324C
:103770000001010001000100001000000C00000029
:10378000504531330001020001000100002000001B
:103790000D00000050453134000000010100000020
:1037A000004000000E0000005045313500000001CF
:1037B00001000000008000000F00000010B5002490
:1037C000FEF724FD4AF6AA20DFF854140860DFF85B
:1037D00054040088002807D0E4B2002C27D101202F
:1037E000040000F073FB22E00020040014210120FB
:1037F000FDF768F814210220FDF764F81421032076
:10380000FDF760F800224FF48071DFF81C04FEF72A
:1038100019F800224FF48061DFF80C04FEF712F86B
:1038200000224FF48051DFF80004FEF70BF8DFF8B8
:10383000FC03807D012861D1DFF8F40300884EF697
:103840006021884207DADFF8E8030088401CDFF8CF
:10385000E013088003E00020DFF8D4130880DFF8CD
:10386000D0030088DFF8CC13A1F80300DFF8C80309
:103870004088DFF8C013A1F80500DFF8BC0380889A
:10388000DFF8B013A1F80700DFF8B00390ED000AED
:10389000BDEEC00A10EE100ADFF89813A1F8090077
:1038A000DFF894030088DFF88C13A1F80B000020E8
:1038B000DFF88013A1F80D000020DFF87813A1F8DD
:1038C0000F000020DFF86C13A1F811000020DFF8D2
:1038D0005C1388754FF48051DFF86403FDF7B0FF87
:1038E0004AF65521DFF85C03FFF700FC0122602156
:1038F000DFF85003FFF7FCFBFEF794F8DFF848030E
:103900000078012805D10020DFF83C13087000F092
:1039100047FBDFF83803007801280DD1DFF81803E2
:103920008088FCF7C4FDDFF81003C088FCF7CEFDEB
:103930000020DFF818130870DFF8F002007C002880
:1039400002D00020B9490874B848407B002800F034
:1039500006810020B5494873DFF8F4020068B0F52D
:103960007A7F16D9BA480068FDF716FCB94ABA4BF7
:10397000FDF720FCB94ABA4BFDF71CFC02000B0016
:103980000020B849FDF7E8FCFDF712FEAB490860DE
:1039900002E0AA4800210160B348007B002831D131
:1039A000B148408800EE100AB8EE400ADFED9B0AED
:1039B000C0EE200AAC48008800EE100AB8EE400ABB
:1039C0009FED961A80EE010AA1480168A6488088FA
:1039D000FCF75AFE93490880A44890ED001AA448C9
:1039E000D0ED000A9448408800EE100AB8EE400A74
:1039F000DFED8A1A80EE210A9B484089FCF7ECFE35
:103A00008D4988809848007B01281FD196484088BE
:103A100000EE100AB8EE400ADFED800AC0EE200A80
:103A20009148008800EE100AB8EE400A9FED7B1A1C
:103A300080EE010A864801688B488088FCF724FEE6
:103A400078490880884840897B4988808648007B7F
:103A5000032811D18748D0ED000A874890ED000A6D
:103A60007B48016885480088FCF70EFE6D49088098
:103A7000834800887049888082480078032825D1CF
:103A800081480078242803D10020664908801DE081
:103A90007E4800687E497C4A127851F8221088429C
:103AA0000CDA7C487849097850F821005D49088093
:103AB00076480068401C7549086007E0002073499B
:103AC000086071480078401C6F4908706648007BA8
:103AD000042844D16448408800EE100AB8EE400A39
:103AE000DFED4E0AC0EE200A5F48008800EE100AA3
:103AF000B8EE400A9FED491A80EE010A5448016869
:103B000059488088FCF7C0FD464908806248006833
:103B100042F6E061884202D100205F4908605E48B9
:103B2000006842F6E161884219DA5B480068401C8F
:103B3000594908605848006841F28931884205DADD
:103B40003D488088401C3C49888008E03A4880888D
:103B5000002804D038488088401E37498880334880
:103B6000007D002806D000203049087504212E4829
:103B7000FDF76FFE2D48407D00283FF423AE4148FD
:103B80000078022846D1274800885F2805DA2548B2
:103B900000880A30234908803CE022480088C32876
:103BA00005DA2048008819301E49088032E01D4897
:103BB0000088B0F5C57F05DC1A4800883230194905
:103BC000088027E01748008840F2E331884205DA90
:103BD000144800886430134908801BE011480088AD
:103BE00040F2CB71884205DA0E480088FA300D4960
:103BF00008800FE00B48008841F64571884206DADC
:103C00000848008810F57A700649088002E0002014
:103C100004490880002005494875D3E50000C842E2
:103C200000300040440100200010024080010020CC
:103C300088020020C0010020240200206802002029
:103C4000000402400038004091020020920200204F
:103C500080020020022B8716D9CE274095D626E871
:103C60000B2E113E00004E40080200205C01002097
:103C70005801002054010020500100208A02002039
:103C80008C02002094020020950200206C0200208B
:103C900000000020940000207002002080B5012167
:103CA0005FF08040FDF70CFA002800F0BD80012194
:103CB0005FF08040FDF71DFADFF8A40200780528C8
:103CC00001DA00F0E1F9DFF89C020078401CDFF82F
:103CD00094120870DFF88C0200780A2810D10020B6
:103CE000DFF8801208700120DFF878128875002054
:103CF000DFF86C120870FCF7F8FB01209949087393
:103D000098484078401C9749487096484078192850
:103D100040F08A8000209349487008219248FDF7BE
:103D200098FD002000F08CFA012090490870FEF701
:103D300024FF01208B4948738A488078401C8949B8
:103D400088708848807804286ED100208549887062
:103D50000120844988738348C078401C8149C87019
:103D60008048C078022805D100207E49C870012013
:103D70007C49C8737B480079401C7A4908717948AE
:103D80000079052850D10020764908710120754935
:103D9000087474484079401C7249487171484079F0
:103DA000022841D100206F49487101206D494874B3
:103DB0006C488079401C6B4988716A488079022878
:103DC00005D10020674988710120664988746548DB
:103DD000C079401C6349C8716248C079052823D165
:103DE00000206049C87101205E49C8745D48007AAE
:103DF000401C5C4908725B48007A022814D10020FC
:103E0000584908720120574908755648407A401CA5
:103E1000544948725348407A052805D10020514939
:103E2000487201204F49487501BD80B54020FFF719
:103E30000DF8002802D04020FFF715F88020FFF78A
:103E400005F8002802D08020FFF70DF800F03EF8BA
:103E500001BD80B50120FFF706F800F037F801BD7D
:103E600080B540F225514248FFF7C7F8002809D035
:103E700040F225513E48FFF7F7F83E480088C0B2AF
:103E800000F061FA40F227713948FFF7B6F80028D0
:103E900007D040F227713648FFF7E6F8012000F01E
:103EA000CFF901BD80B560213348FFF737F900280D
:103EB0000BD060213048FFF754F901202F490870DA
:103EC000002260212C48FFF713F901BD10B52C48E2
:103ED00004882C480078401C2A490870294800783A
:103EE00006280BD12848FCF7B8FF284908600021B4
:103EF0002548FCF7B0FF00202249087040212448E3
:103F0000FDF78FFC2349097860F300012148017017
:103F100080211F48FDF785FC1E49097860F34101A7
:103F20001C48017001211C48FDF77BFC19490978E8
:103F300060F38201174801701848007800280DD0FE
:103F40000020FCF721FDA4B2002C01D0641EFAE78A
:103F50000A20FCF719FD0A480088040010BD000083
:103F60006201002080010020001002409202002027
:103F70000010014004100140003800409102002070
:103F80006001002093020020000C0040800200200D
:103F9000000002406402002000040240640100208E
:103FA00080B52DED028B2148FFF79EF88004800C30
:103FB00000EE100AB8EEC00AB0EE408A9FED160A75
:103FC00038EE000ADFED150A20EE200ADFED140AB4
:103FD00080EE200ADFED130A30EE208A9FED120AF0
:103FE00028EE000A10EE100AFDF72AFB104A114BCA
:103FF000FDF7E0F800F024FA0F4908804FF48051F3
:104000000E48FDF71BFC002260210848FFF770F8FE
:10401000BDEC028B01BD000000C0CCC40000A04379
:1040200000CC4C46000020C30000C84200380040CD
:10403000B55373B9C150F03F240200200004024080
:1040400000217A4800887A4A1288904201D30020E1
:1040500019E07748B0F82C01744A1288904201D3D5
:10406000962010E001200100C9B2962909DA6F48B4
:1040700000886F4AC9B232F81120904201D2491C1F
:10408000F2E70800C0B2704780B56A48007800289F
:1040900007D0022861D03FD3042800F09D807CD354
:1040A000B9E0012301220B216348FEF7C7FD6248F6
:1040B000FEF73FFE02216048FEF74CFE0028F9D0D3
:1040C0005D48FEF73BFE40F6E441484340F6FF7191
:1040D00090FBF1F0594908805848008800EE100A1A
:1040E000B8EE400A41F2883054490988401A00EE7F
:1040F000900AF8EEE00A9FED4C1AC0EE810A80EEBD
:10410000200ABDEEC00A10EE100A48490880FFF7E9
:1041100097FF4A49088081E0012301220C2146488B
:10412000FEF78CFD4448FEF704FE02214248FEF7EC
:1041300011FE0028F9D04048FEF700FE40F6E441A9
:10414000484340F6FF7190FBF1F08521484364211C
:1041500090FBF1F03949488060E0012301220D21F4
:104160003548FEF76BFD3448FEF7E3FD0221324887
:10417000FEF7F0FD0028F9D02F48FEF7DFFD40F6EE
:10418000E441484340F6FF7190FBF1F040000A2102
:1041900090FBF1F02949888040E0012301220F21A2
:1041A0002548FEF74BFD2448FEF7C3FD02212248B7
:1041B000FEF7D0FD0028F9D01F48FEF7BFFD40F6FE
:1041C000E441484340F6FF7190FBF1F00B2110FBF6
:1041D00001F01A49C88021E0012301220A21164872
:1041E000FEF72CFD1448FEF7A4FD02211248FEF74D
:1041F000B1FD0028F9D01048FEF7A0FD40F6E441DB
:10420000484340F6FF7190FBF1F0052110FB01F0EF
:104210000A49088102E0052006490870054800782F
:10422000401C0449087001BD0058934584020020D9
:10423000DC45000862010020002001401802002037
:1042400010B50400E4B2002C56D10020DFF8C811EC
:104250000870AA20DFF8C4110870FF20DFF8BC1135
:104260004870DC20DFF8B41188700020DFF8AC1152
:10427000C8740020DFF8A0110870DFF89C010078F6
:10428000132820DADFF89401DFF88C110978085C34
:10429000DFF88C11DFF8802112785054DFF87C01B0
:1042A000C07CDFF87C11DFF870211278515C0818AF
:1042B000DFF86811C874DFF860010078401CDFF88F
:1042C00058110870D9E7DFF85401C07CDFF85011AD
:1042D000C874DFF84C01017889B2DFF84801FEF7B5
:1042E0005DFE0120DFF840110870012240F22771C5
:1042F000DFF83001FEF756FEE4B2012C22D1DFF8E0
:104300002801007814281DDADFF81401DFF81811ED
:104310000978095C89B2DFF80C01FEF73FFEDFF88F
:1043200008010078132806D1002240F22771DFF837
:10433000F400FEF737FEDFF8F0000078401CDFF8ED
:10434000E810087010BD39490978002908D0012902
:104350000DD0022925D00A293BD00B2954D057E093
:10436000C0B2AA2802D10121304A117053E0C0B274
:104370000D280BD1411C2E4A11702D490978563950
:104380002C4A11700221294A117009E0C0B2AA28F2
:1043900003D10121254A117002E00021234A117046
:1043A00039E0C0B2A12810D1224909784118214A28
:1043B00011700A211D4A11701D490978491E1C4AB5
:1043C000117000211C4A117002E00021174A11707F
:1043D00021E01A49184A1278505417490978491CA3
:1043E000154A1170134909784118124A1170104981
:1043F0000978491E0E4A11700D490978002902D129
:1044000000210A4A117006E00021084A117002E0FA
:104410000021064A1170704798020020C001002058
:10442000D4010020001001409702002099020020D2
:104430009A0200209B0200209C020020080200201B
:10444000F446400D40EAC120490006D200F00EF8C3
:10445000004248BF6FF00040604700F007F84FF09F
:10446000004188428CBF08464042604740F000400F
:10447000490DA1F58061491C05D4D1F11F0154BF3C
:10448000C840C01770474FF00000704780B54748DC
:10449000006850F47000454908604548006850F0D5
:1044A0000100434908600020424908604048006814
:1044B000414908403E4908604048414908603C483D
:1044C000006830F480203A49086000203D490860C7
:1044D00000F005F85FF000603B49086001BD82B064
:1044E00000200190002000903148006850F4803096
:1044F0002F4908602E48006810F4003000900198A1
:10450000401C01900098002803D10198B0F5A04FFD
:10451000F0D127480068800302D50120009001E017
:1045200000200090009801283ED12848006850F0F3
:104530008050264908602648006850F440402449CD
:1045400008601C4800681B4908601A48006850F45D
:104550000040184908601748006850F4A0501549F9
:1045600008601C48164908601148006850F08070C7
:104570000F4908600E4800688001FBD540F20570C5
:10458000154908600B4800688008800009490860E8
:104590000848006850F002000649086005480068B5
:1045A00010F00C000828F9D102B0704788ED00E047
:1045B0000038024008380240FFFFF6FE10300024A9
:1045C000043802400C38024008ED00E04038024058
:1045D000007000400854400F003C0240396E6C6986
:1045E000DB648360625C7358B6542651C14D864AC1
:1045F00072478344B6410B3F803C133AC1378B3539
:104600006F336A317D2FA62DE42B352A9A28102787
:1046100097252F24D6228C215020211FFF1DE91C15
:10462000DF1BDF1AEA1900191E1846177716B01596
:10463000F11439148913E0123D12A1110B117A10F3
:10464000EF0F6A0FE90E6E0EF70D840D160DAC0C10
:10465000450CE30B840B280BD00A7B0A290ADA09E4
:104660008E094509FE08B90877083708FA07BE071A
:1046700085074E071807E406B2068206530626068B
:10468000FA05D005A7057F05590534051005ED0489
:10469000CC04AB048B046D044F0432041704FC03F8
:1046A000E203C803B003980381036A0355033F0381
:1046B0002B0317030403F102DF02CD02BC02AB029D
:1046C0009B028B027C026D025F02510243023602A2
:1046D00029021C0210020402F901EE01E301D801D3
:1046E000CE01C401BA01B001A7019E0195018C0160
:1046F00084017C0174016C0164015D0156014F016C
:10470000480141013B0135012E01000019E050F83C
:10471000041BCB0744BFA9F101035918121F002342
:10472000042A41F8043BF9D25FEA827C0B4604D5A7
:104730004FF0000CA1F800C09B1CD10744BF002122
:10474000197050F8042B002AE1D1704710B450F8CA
:10475000041B79B10268436812180830DC0744BFB3
:10476000A9F10104E31852F8044B43F8044B091F64
:10477000F9D1ECE710BC704710B5074979441831FE
:10478000064C7C44163404E00A68081D511888471A
:104790000146A142F8D110BD740000009400000051
:1047A0004D61696E426F6172640001000084030014
:1047B0000000000000000C000000010025050000C2
:1047C00010000000505F494E480000000001380012
:1047D00004010000000800000100000200000500C4
:1047E00001006000004000004EF68851CEF200014A
:1047F000086840F470000860BFF34F8FBFF36F8FFD
:104800004FF00070E1EE100A7047000001FFFFFF5B
:1048100038010000680100200000000031FFFFFFA8
:1048200068010000B401000000000020000000004A
:1048300000F00BF8002801D0FFF79EFF0020C046D3
:10484000C046FEF7BBFF00F002F80120704700F001
:1048500001B800000746384600F002F8FBE7000008
:1048600080B5C046C046024A11001820ABBEFBE727
:1048700026000200DC05E803DC05E803DC05701710
:10488000B004E803DC050000014880470148004708
:104890008D44000899480008C046C046FFF7A4FFB1
:1048A000FFF7C6FFFFF7FEBFFFF7FEBFFFF7FEBF34
:1048B000FFF7FEBFFFF7FEBFFFF7FEBFFFF7FEBF2C
:1048C000FFF7FEBFFFF7FEBFFFF7FEBFFFF7FEBF1C
:1048D000FFF7FEBFFFF7FEBFFFF7FEBFFFF7FEBF0C
:1048E000FFF7FEBFFFF7FEBFFFF7FEBFFFF7FEBFFC
:1048F000FFF7FEBFFFF7FEBFFFF7FEBFFFF7FEBFEC
:10490000FFF7FEBFFFF7FEBFFFF7FEBFFFF7FEBFDB
:10491000FFF7FEBFFFF7FEBFFFF7FEBFFFF7FEBFCB
:10492000FFF7FEBFFFF7FEBFFFF7FEBFFFF7FEBFBB
:10493000FFF7FEBFFFF7FEBFFFF7FEBFFFF7FEBFAB
:10494000FFF7FEBFFFF7FEBFFFF7FEBFFFF7FEBF9B
:10495000FFF7FEBFFFF7FEBFFFF7FEBFFFF7FEBF8B
:10496000FFF7FEBFFFF7FEBFFFF7FEBFFFF7FEBF7B
:10497000FFF7FEBFFFF7FEBFFFF7FEBFFFF7FEBF6B
:10498000FFF7FEBFFFF7FEBFFFF7FEBFFFF7FEBF5B
:10499000FFF7FEBFFFF7FEBFFFF7FEBFFFF7FEBF4B
:1049A000FFF7FEBFFFF7FEBFFFF7FEBFFFF7FEBF3B
:1049B000FFF7FEBFFFF7FEBFFFF7FEBFFFF7FEBF2B
:1049C000FFF7FEBFFFF7FEBFFFF7FEBFFFF7FEBF1B
:1049D000FFF7FEBFFFF7FEBF290300001E03000024
:1049E000A5020000110300004A030000610300005B
:1049F000EA020000DE020000E203000053020000B1
:104A0000B7030000C3030000920300006D02000022
:104A1000B1020000D0020000610300007D0200002E
:104A20007203000070020000560300001303000030
:104A30008B03000070030000BF030000BA030000F6
:104A4000D00200006903000097020000500200003D
:104A50007C030000160300000D030000BF030000EC
:104A60004403000047030000AC030000D00700002F
:104A7000B80B0000A00F00008813000070170000A2
:104A8000581B0000401F0000D0070000B80B0000BA
:104A9000A00F00008813000070170000581B0000D2
:104AA000401F0000D0070000B80B0000A00F00005E
:104AB0008813000070170000581B0000401F000002
:104AC000D0070000B80B0000A00F00008813000002
:104AD00070170000581B0000401F0000D0070000A6
:104AE000B80B0000A00F0000881300007017000032
:104AF000581B0000401F0000D0070000B80B00004A
:104B00000000000001020304010203040607080973
:104B1000100030DE30DF31AE200000000000000069
:104B20000200000014000000CDCCCC3D9A99993EC3
:104B30000000004100007A4301000501640000000C
:04000005080048990E
:00000001FF
